:1000000045C25FC25EC25DC25CC25BC25AC259C217
:1000100058C29DCA56C255C254C253C271C851C2B9
:1000200050C24FC24EC23031323334353637383990
:1000300041424344454600485454502F312E30200D
:10004000343034204F4B0D0A436F6E74656E742D3F
:10005000547970653A20746578742F68746D6C0DEE
:100060000A0D0A3C68313E5A53502E436F202870C7
:100070006C6561736520676F20746F2069702F69EC
:100080006E6465782E68746D6C293C68313E006240
:100090006F64797B6261636B67726F756E642D63E9
:1000A0006F6C6F723A233939666639393B7D707BE4
:1000B000746578742D616C69676E3A63656E7465FA
:1000C000723B636F6C6F723A7265643B666F6E74FD
:1000D0002D7765696768743A626F6C643B666F6E12
:1000E000742D73697A653A6C617267653B6D6172F4
:1000F00067696E3A313070783B7D7461626C657B04
:1001000077696474683A313030253B626F72646598
:10011000722D7374796C653A6F75747365743B6294
:100120006F726465722D77696474683A3570783BD4
:100130006261636B67726F756E642D636F6C6F7253
:100140003A4343464646463B7D696E7075747B7004
:10015000616464696E673A313070783B6D617267D3
:10016000696E3A313070783B706F736974696F6E85
:100170003A72656C61746976653B7D00436F6E749D
:10018000656E742D547970653A20746578742F63A8
:1001900073730D0A0D0A00485454502F312E30202D
:1001A000323030204F4B0D0A003C6C696E6B207270
:1001B000656C3D227374796C657368656574222083
:1001C000747970653D22746578742F63737322208F
:1001D000687265663D227374796C652E6373732251
:1001E000202F3E3C666F726D206D6574686F643DB4
:1001F000224745542220616374696F6E3D22696E07
:100200006465782E68746D6C223E3C7461626C6526
:1002100020626F726465723D313070783E3C746468
:100220003E3C703E52454C4159313C2F703E3C693A
:100230006E70757420747970653D227375626D6996
:100240007422206E616D653D224231222076616C00
:1002500075653D22544F47474C45222F3E3C2F7435
:10026000643E3C74643E3C703E52454C4159323CC5
:100270002F703E3C696E70757420747970653D22F4
:100280007375626D697422206E616D653D22423224
:10029000222076616C75653D22544F47474C4522BC
:1002A0002F3E3C2F74643E3C74643E3C703E52458D
:1002B0004C4159333C2F703E3C696E70757420740C
:1002C0007970653D227375626D697422206E616D6F
:1002D000653D224233222076616C75653D22544F84
:1002E00047474C45222F3E3C2F74643E3C74643E8D
:1002F0003C703E52454C4159343C2F703E3C696E37
:1003000070757420747970653D227375626D6974BF
:1003100022206E616D653D224234222076616C752B
:10032000653D22544F47474C45222F3E3C2F746475
:100330003E3C74643E3C703E52454C4159353C2F26
:10034000703E3C696E70757420747970653D2273DF
:1003500075626D697422206E616D653D22423522A1
:100360002076616C75653D22544F47474C45222FDE
:100370003E3C2F74643E3C74643E3C703E52454C9F
:100380004159363C2F703E3C696E7075742074790B
:1003900070653D227375626D697422206E616D65B2
:1003A0003D224236222076616C75653D22544F47CE
:1003B000474C45222F3E3C2F74643E3C74723E3CB9
:1003C00074643E3C703E414443313D25643C2F7093
:1003D0003E3C2F74643E3C74643E3C703E4144435A
:1003E000323D25643C2F703E3C2F74643E3C746467
:1003F0003E3C703E414443333D25643C2F703E3CBF
:100400002F74643E3C74643E3C703E414443343D32
:1004100025643C2F703E3C2F74643E3C74643E3C2B
:10042000703E414443353D25643C2F703E3C2F7463
:10043000643E3C74643E3C703E414443363D25641A
:100440003C2F703E3C2F74643E3C74723E3C2F74D3
:1004500061626C653E3C2F666F726D3E00436F6E4D
:1004600074656E742D547970653A20746578742FB4
:1004700068746D6C0D0A0D0A00485454502F312ECB
:100480003020323030204F4B0D0A000011241FBEA7
:10049000CFE5D4E0DEBFCDBF10E0A0E6B0E0E2E003
:1004A000FBE102C005900D92A23AB107D9F713E023
:1004B000A2EAB0E001C01D92AD3DB107E1F745DA17
:1004C0001ECB9ECDCF92DF92EF92FF920F931F93A0
:1004D000CF93DF936C01EB014130B1F4CB0108976E
:1004E000A0E0B0E00F2EF1E1EF2EF0E0FF2EF0E003
:1004F0000F2FF0E01F2FF02DE80EF91E0A1F1B1F13
:10050000C230D105D0F43EC0423021F0EE24FF24A9
:100510008701F6CFCB010897A0E0B0E00F2EF6E000
:10052000EF2EF0E0FF2EF0E00F2FF0E01F2FF02D68
:10053000E80EF91E0A1F1B1FE3CFF601BE018081E2
:1005400090E0A0E0B0E0BA2FA92F982F8827218152
:1005500030E040E050E0822B932BA42BB52BE80E2B
:10056000F91E0A1F1B1F32966250704062307105DF
:1005700030F7CE010297EC01C170D0708E7F0296E9
:10058000C80ED91ECD2B69F0F601808190E0A0E065
:10059000B0E0BA2FA92F982F8827E80EF91E0A1F5E
:1005A0001B1F980144275527211531054105510589
:1005B00091F0D801C701A070B0707C018D01E20EEE
:1005C000F31E041F151F98014427552721153105D7
:1005D0004105510571F7970120953095822F932F92
:1005E000DF91CF911F910F91FF90EF90DF90CF900F
:1005F0000895CF93DF93EC014093600020E030E05A
:100600004CEA50E0DA01A20FB31FFB01E20FF31F27
:1006100080818C932F5F3F4F2430310599F720E084
:1006200030E046EA50E0DA01A20FB31FFE01E20F0C
:10063000F31F80818C932F5F3F4F2630310599F750
:10064000DF91CF910895FC0169327105B8F084857E
:100650008830A1F48585863089F4DF019696ECEA2E
:10066000F0E020EB30E09C918081981739F41196EE
:100670003196E217F307B9F781E0089580E0089515
:10068000FC016A327105D8F084858830C1F4858513
:100690008823A9F48685853491F4DF01ECEAF0E043
:1006A00020EB30E05E969C915E978081981739F43C
:1006B00011963196E217F307A9F781E0089580E0DB
:1006C0000895FC01A6EAB0E02CEA30E08681808340
:1006D0008D9186833196A217B307C1F70895EF92E3
:1006E000FF920F931F93FC010F2EF8E1EF2EFF24D2
:1006F000F02DE80EF91ED7011C928C01075E1F4FEA
:10070000D8011C9280E4848B158A868BCF010E96CB
:1007100064E170E040E0D6DEF7019083D8018C936D
:100720001F910F91FF90EF900895482F592F282F78
:10073000392FF901ACEAB0E020EB30E0828D868FF2
:100740008D91828F3196A217B307C1F7842F952F11
:10075000C6DF0895CF93DF93DC01FC01B296808160
:1007600094968C9394971082FD01B3968081959610
:100770008C9395971082809160008083ED01A996FB
:10078000FE0194E08081680F711D848164832223BF
:1007900011F0808301C0108291503197992319F094
:1007A000672F7727EFCF222379F496961C9296979E
:1007B00097961C9297978091610098968C93989742
:1007C00018828E5F80936100D2961C92D297D39646
:1007D0001C92D3974423A1F082E0D6968C93D697AF
:1007E00084E0D7968C93D79785E0D8968C93D8974A
:1007F00080E8D9968C93D99780E69E968C9303C017
:1008000080E59E968C93DF91CF9108958091A20010
:100810009091A300892B19F420E030E007C080916B
:10082000A4009091A5009C012E5D3F4F822F932F35
:100830000895FC01308920E0818990E0282B392B34
:1008400086A582958F7090E0880F991F880F991F59
:100850009093A5008093A40024513040281B390BAD
:100860003093A3002093A2001216130624F01092D6
:10087000A3001092A2000895DC01FA012491222322
:1008800079F04F5F5F4FCB01C696A80FB91F2D932C
:100890006F5F7F4FFA014F5F5F4F24912223B9F7BB
:1008A000862F972F0895DC01FA012081222359F029
:1008B000CB01C696A80FB91F2D936F5F7F4F31965E
:1008C00020812223C9F7862F972F0895AF92BF92D8
:1008D000CF92DF92EF92FF920F931F938C017B01D7
:1008E00089E1F80187A7CB018896908B818BC8019D
:1008F000F6DE0F2EF2E3AF2EBB24F02DA00EB11EBC
:10090000F50110820F2EF3E3CF2EDD24F02DC00E63
:10091000D11EF6011082B701645E7F4FC8014A966E
:1009200042E0D0DDF5019083F6018083C701C696D1
:10093000B801B3D21F910F91FF90EF90DF90CF904D
:10094000BF90AF900895CF93DF93EC01BADE80E1C2
:100950008FA76091A2007091A3006115710539F411
:10096000CE0161E070E040E021E0F4DE04C0CE01A1
:1009700040E021E0EFDE188A88E2898BCE01D5DEE7
:10098000CE014A966CE170E042E09CDD9AAB8BAB05
:1009900086E390E0BE0181D2DF91CF9108950F935D
:1009A0001F938C018EDEF801108A8CE2818BC801C6
:1009B000BCDE82E1F80187A7C80161E070E041E098
:1009C00020E0C8DEC8014A9660E270E042E07ADDCD
:1009D000F80192AB83AB8AE390E0B8015ED21F913D
:1009E0000F910895AF92BF92CF92DF92EF92FF9254
:1009F0000F931F93CF93DF93EC01B62EA72E142FE6
:100A0000F22E032F5EDE1D3D08F01CED188A812FAB
:100A1000845E898BCE0189DEDE0192968C918CA357
:100A2000FE01B39680818DA30C93F0821EA2812FCC
:100A3000885F8FA30F2EF8E2CF2EDD24F02DCC0E91
:100A4000DD1EF60110820F2EF9E2EF2EFF24F02DAD
:100A5000EC0EFD1EF7011082112361F06B2DDE01FB
:100A60009A962B2D3A2DF90181918D938E2F861B0D
:100A70008117D0F3012F10E0B801605F7F4FCE01E6
:100A80004A9641E01FDDF6019083F7018083C8019B
:100A90008A96BE0102D2DF91CF911F910F91FF90F4
:100AA000EF90DF90CF90BF90AF9008950F931F937A
:100AB000CF93DF93EC018B0104DECE0136DE1AA268
:100AC000DE0194968C91883F28F0FE01B5968081D6
:100AD0008F5F80838C91885F8C93C801BE01DDD1CC
:100AE000DF91CF911F910F910895CF93DF93EC0188
:100AF000E8DD1C8A82E08D8BFE01A6EAB0E02CEADC
:100B000030E0868980A38D91868B3196A217B3073A
:100B1000C1F7FE017C96ACEAB0E020EB30E08081CA
:100B200082878D918193A217B307C9F78AE290E07B
:100B3000BE01B3D1DF91CF910895E8E3F0E0908159
:100B40009B7F9083962F9F71982B9FB9EEE2F0E0E8
:100B500080818823ECF71FB8EEE2F0E080818823E3
:100B6000ECF7662334F41FB8EEE2F0E080818823CE
:100B7000ECF7E8E3F0E08081846080838FB1089532
:100B8000E8E3F0E090819B7F90836F71682B6FB9F1
:100B9000EEE2F0E080818823ECF74FB9EEE2F0E07E
:100BA00080818823ECF7E8E3F0E080818460808333
:100BB00008950F931F93CF93DF938C01AB01E8E36C
:100BC000F0E080818B7F80838AE38FB9EEE2F0E0F2
:100BD00080818823ECF70115110599F09801DA015D
:100BE000CFE2D0E0EEE2F0E0215030401882808188
:100BF0008823ECF788818D9321153105A9F7400FE3
:100C0000511FFA011082E8E3F0E080818460808364
:100C1000DF91CF911F910F910895CF93DF939C01A6
:100C2000DB01E8E3F0E080818B7F80838AE78FB986
:100C3000EEE2F0E080818823ECF70CC0CFE2D0E058
:100C4000EEE2F0E0215030408D918883808188234E
:100C5000ECF704C02115310589F703C021153105D2
:100C600089F7E8E3F0E0808184608083DF91CF91B1
:100C700008951F93CF93DF93182F90E0EC01C07677
:100C8000D0708091B00090E0C817D907B1F080EA29
:100C90006FE143E075DFAE01559547955595479552
:100CA00055954795559547955595479580E86FE13A
:100CB00067DF812F80768093B000DF91CF911F9105
:100CC00008951F93182FD5DF80E0612F36DF1F9125
:100CD00008950F931F93182F062FCBDF80E4612F09
:100CE000402F4EDF1F910F910895682F84EDF1DFA3
:100CF00082ED61E0EEDF8EE38A95F1F78AEEE1DFC7
:100D000080FDFCCF82ED60E0E4DF89EDDADF90E08A
:100D100008950F931F93982F162F072F84ED692F97
:100D2000D8DF86ED612FD5DF87ED602FD2DF1EE3A0
:100D300003C0812F8A95F1F78AEEC3DF80FDF9CFDA
:100D40001F910F910895682F677085E7C2DF08959E
:100D50000F931F938C01E7E3F0E080818460808330
:100D6000A8E3B0E08C9184608C938081886280835A
:100D700080818F7E80838C91877F8C938C918F7DF7
:100D80008C9380E58DB9EEE2F0E080818160808314
:100D90008FEF60E04FEFF4DE8DEC8A95F1F7109263
:100DA000B2001092B10088E060E093DF89E060E07B
:100DB00090DF8CE060E08DDF8DE060E08ADF8AE02C
:100DC0006EEF87DF8BE069E184DF84E06FEF81DF26
:100DD00085E069E17EDF86E06FEF7BDF87E06FE132
:100DE00078DF88E360EB75DF88E26FE372DF89E22A
:100DF00060E36FDF80E369EF6CDF81E367EF69DF5A
:100E000080EC6DE066DF81EC60E063DF80E862EC3F
:100E100042E3B6DE86EC62E15CDF87EC6CE059DF32
:100E200084EC62E156DF8AEC6CED53DF8BEC65E01D
:100E300050DF84EEF80160814CDF85EEF8016181BE
:100E400048DF82EEF801628144DF83EEF8016381BE
:100E500040DF80EEF80164813CDF81EEF8016581BE
:100E600038DF80E160E071E054DF8FE102DF80E88D
:100E70006BE140EC85DE80E86FE144E081DE1F91AC
:100E80000F91089582E71DDF089581E12EDF20E0B4
:100E9000892B09F021E0822F08950F931F93CF93A0
:100EA000DF93EC018B010CC08CE10BDF81FF08C0EC
:100EB00080E86FE140E864DE80EA6FE140E860DEF0
:100EC00080E06FE13ADE83FDEFCF82E06FEF01DF7C
:100ED00083E069E1FEDECE018150682F86E0F9DE15
:100EE0009E012150364E87E0632FF3DE8AE760E0F3
:100EF00040E046DECE01B80190DE80E86FE148E0D8
:100F00003FDEDF91CF911F910F91089589E3D9DEE4
:100F1000811181E00895AF92BF92CF92DF92EF925C
:100F2000FF920F931F93CF93DF937C016B0189E3B3
:100F3000C8DE882319F400E010E064C06091B100BD
:100F40001091B20080E0C5DE81E0612FC2DE8AE34D
:100F500060E0F3DD082F8AE360E0EFDD382F20E06A
:100F600010E0E901C02BD12BD093B200C093B100A7
:100F70008AE360E0E2DDA82E8AE360E0DEDDB82EE1
:100F80008AE360E0DADD082F10E08AE360E0D5DD77
:100F9000382F20E0202B312B22231CF000E010E022
:100FA00013C02A2D30E09B2D80E0822B932B9701DC
:100FB000215030408C01045010402017310708F4B4
:100FC0008901C801B601F5DDFC2E8CE06C2F81DEB5
:100FD0008DE06D2F7EDE219789E1CF3FD80738F075
:100FE0008CE06EEF76DE8DE069E173DE07C06F2D79
:100FF00061508CE06EDE8DE06D2F6BDE80E86EE17F
:1010000040E4BEDD802F912FDF91CF911F910F9192
:10101000FF90EF90DF90CF90BF90AF900895E6E201
:10102000F0E08081877F808380818F77808308953F
:10103000E6E2F0E09081987F892B80830895E7E2D3
:10104000F0E090818295880F880F807C9F73892BB8
:10105000808308950F931F9306E210E0F8018081CA
:101060008068808380818F7D808386E0E1DF81E0FE
:10107000E6DFE7E2F0E080818F7D8083F801808108
:10108000886080831092D60378941F910F91089501
:10109000E7E2F0E090818F71907E892B8083089544
:1010A000E6E2F0E0808180618083808180648083DB
:1010B000089586B1807408951092D603E7E2F0E0B7
:1010C00090818F71907E892B8083E6E2F0E08081B1
:1010D00080618083808180648083808186FDFDCFF4
:1010E00084B145B1342F20E090E0282B392B822F9A
:1010F000932F0895E1DF96958795969587950895A6
:101100001F920F920FB60F9211248F938FEF80933F
:10111000D6038F910F900FBE0F901F90189590934C
:10112000B4008093B30008951F93182F8A3031F4D0
:10113000E091B300F091B4008DE00995E091B30027
:10114000F091B400812F09951F910895CF93DF93FB
:10115000EC01009741F08881882329F02196E4DF93
:1011600088818823D9F7DF91CF910895EF92FF927C
:101170000F931F93CF93DF938C017A010097F9F0BF
:1011800020E030E02617370738F4F80181918F010D
:101190002F5F3F4F8823B1F7E114F10481F0C0E0E5
:1011A000D0E0F8018081882321F00F5F1F4FBCDF62
:1011B00002C080E2B9DF2196CE15DF0590F3DF9102
:1011C000CF911F910F91FF90EF900895CF93DF93F0
:1011D000FC01009759F08491882341F0EF0121969A
:1011E000A3DFFE01219684918823D1F7DF91CF916F
:1011F00008958AE099DF0895E82FF0E0EF70F0702D
:10120000EA5DFF4FE4918E2F8FDF08951F93182F13
:1012100082958F70F1DF812FEFDF1F9108951F936B
:10122000182F892FF3DF812FF1DF1F910895EF929F
:10123000FF920F931F937B018C01AA27BB27EFDF3F
:10124000C701EDDF1F910F91FF90EF9008952F924E
:101250003F924F925F926F927F928F929F92AF9246
:10126000BF92CF92DF92EF92FF920F931F93DF9383
:10127000CF93CDB7DEB7A5970FB6F894DEBF0FBEFC
:10128000CDBF4AA32BA317012801442351F01123FA
:1012900044F4EE24FF248701E218F3080409150939
:1012A00002C082017101A62E262F215090E03AA1A2
:1012B000311191E0291B29A318A2DE015F96BDA37D
:1012C000ACA3682E772467FC7094872C972CC801F8
:1012D000B701A4019301E3D36F707070FB01EA5D65
:1012E000FF4F64916F8FC801B701A4019301D7D359
:1012F000822F932FA42FB52F7C018D010F2EFEE19D
:10130000CF2EDD24F02DCC0EDD1EB9A026C0E114B9
:10131000F10401051105D1F0C801B701A401930141
:10132000BED36F707070E6E2F0E0E60FF71FE49155
:10133000D601EC93C801B701A4019301B0D3822F69
:10134000932FA42FB52F7C018D0103C02BA1F60193
:101350002083BA940894C108D108BB20C1F60CA11F
:101360001DA139A1031B11098AA18823A9F05520C9
:101370002CF48DE2D8018E938D010EC0121413044B
:10138000140415042CF48BE2F80182938F0104C03D
:1013900080E2D8018E938D01AA2031F0F80181916D
:1013A0008F01C2DEAA94D1F7A5960FB6F894DEBFDE
:1013B0000FBECDBFCF91DF911F910F91FF90EF90A6
:1013C000DF90CF90BF90AF909F908F907F906F9065
:1013D0005F904F903F902F9008952F923F924F92A1
:1013E0005F927F928F929F92AF92BF92CF92DF9245
:1013F000EF92FF920F931F93DF93CF93CDB7DEB79A
:101400007C88CD88DE888E01095E1F4F44245524D8
:10141000689454F822243324689424F819C088234B
:10142000A1F480E090E0CF91DF911F910F91FF90A8
:10143000EF90DF90CF90BF90AF909F908F907F9074
:101440005F904F903F902F9008956EDE4801840189
:10145000772031F0F6010894C11CD11C849103C09F
:10146000F60181916F018532D1F6772031F0F601D6
:101470000894C11CD11C849103C0F60181916F01B5
:10148000843689F0883709F456C0833611F0480154
:1014900008C088249924689481F8800E911EF80170
:1014A000808142DED4CF88249924689481F8800E0C
:1014B000911EF801E080F180FF2034F4F094E19473
:1014C000F108F3948DE230DEF0E1EF16F7E2FF066B
:1014D00040F000E117E20F2EFAE0AF2EBB24F02D12
:1014E00017C000E117E2E0E0F0E0C8016AE070E058
:1014F000C2D2862F972F8C01E330F10521F031966F
:10150000E016F10690F30F2EFAE0AF2EBB24F02D7B
:10151000C701B801B0D2862F6FDEC701B801ABD2C8
:101520007C01C801B501A7D2862F972F8C01011528
:10153000110571F78CCF88249924689481F8800E66
:10154000911EF801E080F18082015101E1CF1F92EC
:101550000F920FB60F9211248F939F93EF93FF93E7
:101560008091930090919400009731F001979093AF
:1015700094008093930004C01092960010929500FE
:101580008091D9039091DA03499751F41092DA03CC
:101590001092D903E8E3F0E0808192E0892780830C
:1015A0008091D9039091DA0301969093DA038093A6
:1015B000D903FF91EF919F918F910F900FBE0F90E4
:1015C0001F901895EF92FF920F931F9300EC1DE56B
:1015D000C8010197F1F70F2EF7E9EF2EF0E0FF2E8B
:1015E000F02DC701B5DB82E0AEDBC8010197F1F752
:1015F00084E166E774E08DDBC8010197F1F7C7016C
:101600006DE970E040E5F5D782ED9BE088DD22DDF5
:101610008FEF81BBE7E3F0E0808182608083E3E5C8
:10162000F0E0808185608083E9E5F0E08081816081
:10163000808378941F910F91FF90EF900895AF925F
:10164000BF92CF92DF92EF92FF920F931F93CF93AF
:10165000DF93A82EB92E8B01A82FB92FFD01019081
:101660000020E9F731976F01CA1ADB0AA62FB12FC4
:10167000FD0101900020E9F73197EA1BFB0B7F0188
:10168000EC18FD08A2F0C0E0D0E0B8016C0F7D1F9F
:101690008A2D9B2DA60125D2282F392F232B19F413
:1016A00020E030E006C02196EC16FD0674F72FEF1F
:1016B0003FEF822F932FDF91CF911F910F91FF90DA
:1016C000EF90DF90CF90BF90AF900895CF93DF93CE
:1016D000EC01609682E690E0BE0142E050E001D26B
:1016E000282F392F232B39F4E2E3F0E0808191E0B9
:1016F0008927808354C085E690E0BE0142E050E037
:10170000F0D1282F392F232B39F4E2E3F0E0808148
:1017100092E08927808343C088E690E0BE0142E0E2
:1017200050E0DFD1282F392F232B39F4E2E3F0E00A
:10173000808194E08927808332C08BE690E0BE01EF
:1017400042E050E0CED1282F392F232B39F4E2E3A9
:10175000F0E0808198E08927808321C08EE690E0C8
:10176000BE0142E050E0BDD1282F392F232B39F4A0
:10177000E2E3F0E0808190E18927808310C081E777
:1017800090E0BE0142E050E0ACD1282F392F232B4E
:1017900031F4E2E3F0E0808190E289278083DF91F9
:1017A000CF910895DF93CF9300D0CDB7DEB7898373
:1017B0001A826091D7037091D80385EB90E0AE0157
:1017C0004F5F5F4F70D89093D8038093D7030F90EB
:1017D0000F90CF91DF9108958F929F92AF92BF9219
:1017E000CF92DF92EF92FF920F931F93082FE92E73
:1017F0001092D8031092D703109296001092950081
:1018000084E790E0602F7E2D1ADF892B09F051C00C
:10181000802F9E2D5BDF05EB10E0C80160E070E0DB
:1018200049E754E029D8BC019093D8038093D703AB
:10183000C8014DE554E020D89093D8038093D70396
:1018400085E03ADC4C0184E037DC5C0183E034DC89
:101850006C0182E031DC7C0181E02EDC8C0180E0D7
:101860002BDC2DB73EB72F5030400FB6F8943EBF5B
:101870000FBE2DBFEDB7FEB7319621E0208329EAD8
:1018800031E03283218394828382B682A582D0861E
:10189000C782F286E18614870387968785879DDD58
:1018A0008DB79EB70F960FB6F8949EBF0FBE8DBF33
:1018B00031C084E890E0602F7E2DC1DE892BF9F4E1
:1018C00005EB10E0C80160E070E047E951E0D4D7D3
:1018D000BC019093D8038093D703C8014CE751E033
:1018E000CBD7BC019093D8038093D703C8014FE8AE
:1018F00050E0C2D79093D8038093D7030BC085EBF9
:1019000090E060E070E047E350E0B6D79093D803F2
:101910008093D70305EB10E0C80115D86091D70379
:101920007091D803C801D2D785EA9EE090939400C5
:10193000809393001F910F91FF90EF90DF90CF90D5
:10194000BF90AF909F908F9008958F929F92AF928B
:10195000BF92CF92DF92EF92FF920F931F93CF939C
:10196000DF9328E833E148EC50E0CA010197F1F732
:1019700021503040D1F726DE29E088E190E00FB613
:10198000F894A89581BD0FBE21BDA895C5EBD0E008
:101990000CEC10E00F2EF9EDCF2EF0E0DF2EF02D45
:1019A0000F2EFAEDAF2EF0E0BF2EF02D0F2EF4EE3D
:1019B0008F2EF0E09F2EF02D0F2EF7EDEF2EF0E0A2
:1019C000FF2EF02D80E293E0BE01A5DABC019093DA
:1019D000D8038093D703009711F4A895F3CFCE01D5
:1019E00032D6882321F0CE0180D8A895EBCF609124
:1019F000D7037091D803CE0143D6882311F4A8955C
:101A0000E1CFF8018081813061F4F7018081883075
:101A1000C9F66091D7037091D803CE0147D8A89535
:101A2000D1CF863079F6F6018081882359F6F50109
:101A30008081803539F6F401808181FF04C0CE01B8
:101A4000AED7A895BFCF84FFBDCFCE01F2D6DED6EC
:101A50009093DC038093DB03009741F4F4018081D1
:101A600080FF02C0CE016FD7A895ACCF8C0F9D1F11
:101A7000B3DEA895A7CFAA1BBB1B51E107C0AA1FC5
:101A8000BB1FA617B70710F0A61BB70B881F991F1F
:101A90005A95A9F780959095BC01CD010895A1E2D2
:101AA0001A2EAA1BBB1BFD010DC0AA1FBB1FEE1FD8
:101AB000FF1FA217B307E407F50720F0A21BB30B23
:101AC000E40BF50B661F771F881F991F1A9469F79F
:101AD00060957095809590959B01AC01BD01CF01FB
:101AE0000895FB01DC014150504030F08D91019090
:101AF000801919F40020B9F7881B990B0895F89400
:021B0000FFCF15
:101B0200500A423100423200423300423400423530
:101B120000423600474554202F696E6465782E686E
:101B2200746D6C00474554202F7374796C652E6375
:101B3200737300A50E0100522135081009C0A801D7
:021B4200680039
:00000001FF
